:020000040800F2
:10000000600A002099020008B74F0008ED4500087B
:10001000B54F0008E1150008C95D000800000000A8
:100020000000000000000000000000001D53000858
:10003000D116000800000000955000081F5300086A
:10004000B3020008B3020008B3020008B3020008BC
:10005000B3020008B3020008B3020008B3020008AC
:10006000B3020008B3020008B3020008E515000857
:10007000F1150008B3020008B3020008B30200083B
:10008000B3020008B3020008B3020008B30200087C
:10009000B3020008B3020008B3020008B30200086C
:1000A000B3020008B9530008B3020008B302000805
:1000B000B3020008B3020008B3020008B30200084C
:1000C000B3020008B3020008B3020008B30200083C
:1000D000B3020008B3020008B3020008B30200082C
:1000E000B3020008B3020008B3020008C5530008B9
:1000F000E9530008DD530008D153000855150008E6
:10010000B3020008B3020008B3020008B3020008FB
:10011000B3020008B3020008B3020008B3020008EB
:10012000B3020008B3020008B3020008B3020008DB
:10013000B302000861150008B3020008B30200080A
:10014000B3020008B3020008B3020008B3020008BB
:10015000B3020008B3020008B3020008B3020008AB
:10016000B3020008B3020008B3020008B30200089B
:10017000B3020008B3020008B3020008B30200088B
:10018000B3020008B3020008B3020008B30200087B
:10019000B302000800000000B3020008B302000828
:1001A000B3020008B3020008B3020008B30200085B
:1001B000B3020008B3020008B3020008B30200084B
:1001C000B3020008B3020008B3020008B30200083B
:1001D000B3020008B302000800F002F800F04CF887
:1001E0000AA090E8000C82448344AAF10107DA4592
:1001F00001D100F041F8AFF2090EBAE80F0013F098
:10020000010F18BFFB1A43F0010318472C890000A7
:100210004C890000103A24BF78C878C1FAD8520738
:1002200024BF30C830C144BF04680C607047000070
:100230000023002400250026103A28BF78C1FBD8EF
:10024000520728BF30C148BF0B607047662906F0CF
:10025000A386642900F0CC80002070471FB506F00B
:1002600096FE00F039FC04000020002106F01AF987
:10027000E0601FBD10B510BD00F02EFD1146FFF768
:10028000EDFF05F08FFE00F04CFD03B4FFF7F2FF29
:1002900003BC00F08FFD0000094880470948004773
:1002A000FEE7FEE7FEE7FEE7FEE7FEE7FEE7FEE726
:1002B000FEE7FEE704480549054A064B7047000083
:1002C000A9530008D901000860040020600A00203A
:1002D000600600206006002053EA020C00F06980EE
:1002E0002DE9F04B4FF00006002B1FBFB3FA83F54A
:1002F00003FA05F424FA05F65E4012BF1643B2FA7B
:1003000082F502FA05F4C5F120051EBF22FA05FCAC
:1003100044EA0C04203556EA044C4FEA144418BF52
:10032000641C4FF000084FF00009904271EB030C81
:1003300039D3002919BFB1FA81F701FA07F6B0FAEB
:1003400080F700FA07F6C7F120071EBF20FA07FC66
:1003500046EA0C062037B6FBF4FCA7EB0507103F76
:1003600007F01F0BCBF120060CFA0BFB2CFA06F65C
:1003700044BFB3460026202FA4BF5E464FF0000BBB
:100380005BEA060C08BF4FF0010B19EB0B09ABFB46
:10039000027C48EB0608C01B06FB02CC0BFB03CC1F
:1003A00071EB0C01C1E70B46024641464846BDE8E9
:1003B000F08B13B54FF000004FF00001AFF3008059
:1003C000BDE81C40704700000FB41CB5074B06AADF
:1003D0007B4469460090059800F065FB0020694663
:1003E00000F074FB1CBC5DF814FB0000F906000073
:1003F0002DE9F0410646002410687529314616A5FE
:1004000010D0AFF30080002802DA404213A507E0C5
:1004100031688A0701D512A502E0490704D511A564
:10042000012401E0AFF3008000210A2206F1240735
:1004300009E0B0FBF2FCB0FBF2F302FB1C00303031
:1004400078541846491C0028F3D123462A463046E2
:10045000BDE8F04100F0B9B8000000002D00000038
:100460002B000000200000002DE9F0474FF0000AAB
:1004700089460446C0F820A02046E1688847002845
:1004800076D0252806D0D4E901219047206A401C67
:100490002062F1E7E168204600258847C4F81CA0E7
:1004A00006460027C4F818A02A2E09D0304605F0C9
:1004B000D9FC38B304EB8708303EC8F8186019E05F
:1004C00059F8041B204604EB87029161E1688847D4
:1004D000012F064618D1E069002820DA25F0200512
:1004E0001DE0D8F8180000EB800006EB4000303823
:1004F000C8F818002046E1688847064605F0B2FCB7
:100500000028EED1012F0AD02E2E08D12046E16816
:1005100088477F1C0646022F45F02005C4DBA069F2
:10052000002803DA404245F00105A061E80701D048
:1005300025F01005B6B1A6F14100192802D82036E1
:1005400045F400654A463146204625604D46FFF792
:100550007DFE58B1012806D0ED1D25F0070000F101
:10056000080989E704E005F1040985E730468AE7D0
:10057000206ABDE8F0874FF0000200B513469446AC
:100580009646203922BFA0E80C50A0E80C50B1F1EB
:100590002001BFF4F7AF090728BFA0E80C5048BFFF
:1005A0000CC05DF804EB890028BF40F8042B08BF9D
:1005B000704748BF20F8022B11F0804F18BF00F899
:1005C000012B70477047704770472DE9F0470D4683
:1005D00099469246044600F124080168880604D52D
:1005E000E06921F01001216000E00120A84201DD56
:1005F000471B00E00027A1697A1902EB0900081ADD
:10060000A0612078C00602D42046AFF30080002607
:1006100008E0D4E901211AF806009047206A401C3E
:10062000761C20624E45F4DB2078C0060AD52046B1
:10063000AFF3008006E0D4E9012130209047206A22
:10064000401C2062381EA7F10107F4DC07E0D4E962
:10065000012118F805009047206A401C2062281EDE
:10066000A5F10105F3DC2046AFF3008020780006F9
:1006700002D50220BDE8F0870120FBE770472DE995
:10068000FF4F0C461E464FF0FF378BB0D2E90001FA
:10069000DDF860800A908A46C1F30A5505B93D46E7
:1006A000002108464FF00000BAF1000F00F44000AE
:1006B00005DA00EB80004FF4400101EA50004FEAF8
:1006C0009059B9F1010F00DDB9460A9850EA4A0085
:1006D0000ED044F61050A5F2FF3545432F14B8F163
:1006E000000F1ED07542291E1EDDC9F100021CE05C
:1006F000B8F1010F4FF0000001D0302103E0F243C8
:1007000005E02154401CB042FBDB304600220021B2
:1007100021540B99C1F80880C1E900200FB0BDE851
:10072000F08FBD1B6D1CDEE74A4600DA694206A861
:1007300000F05CFA06AB93E8070003AB83E8070020
:1007400050460A9900F03DFB8DE80700A0F50050E7
:100750001F3800900398002D0ADD42F21F014A461F
:100760000844002303A90390684600F0A6FD09E0B1
:10077000A0F500504A461F38002303A9039068469D
:1007800000F0B0FD8DE807000004000C03D04FF02E
:10079000FF30410800E01046B8F1000F03D00022FE
:1007A000009215461EE0751E05D400F099F930320E
:1007B00062556D1EF9D5B3460122084302D00022CE
:1007C0007F1C04E02078302801D100227F1E002AFF
:1007D000099784D01DE0112D07DA00F081F930323D
:1007E00062556D1C50EA0102F5D1084302D0009811
:1007F000C8B10EE00021681E05E0235C625C635412
:100800002254401E491C8142F7DBAB46A81B401E08
:100810000990002004F80B000B98099AC0F8088092
:10082000C0E9002B7AE711264FF0000857E72DE9C1
:10083000F04F88460446D21D22F0070191B0D1E95D
:100840000001CDE90A0105F0E5FA02460B98C00F58
:1008500001D02D2007E02068810701D52B2002E080
:10086000202101EAC000032A099001D0072A05DBF4
:1008700003464146204600F079F90BE120788006D6
:1008800001D5E06900E00620B8F1650F814606D089
:10089000B8F1660F18D0B8F1670F70D131E00020C1
:1008A000B9F1110F009001DB112301E009F10103FF
:1008B0000AAA01A90CA8FFF7E2FEDDE90C700026E8
:1008C00009F10105834647E001204B4600904FF0B7
:1008D00000470AAA01A90CA8FFF7D1FEDDE90DB077
:1008E0000C995D46002610B909F101000D18B9EB0D
:1008F000050003D4C0F1FF3609F10105A5EB09009D
:100900002BE0B9F1010F01DA4FF001090020B9F134
:10091000110F0090484601DD112300E003460AAAAA
:1009200001A90CA8FFF7ABFEDDE90C704D460026CF
:100930008346207800070AD4AB4500DA5D4601A85B
:10094000012D04DD411911F8011C302907D04F4554
:1009500002DA17F1040F04DA012082460FE06D1E5F
:10096000EEE7002F02DCED1B3E4403E0781CA842BA
:1009700000DD7D1CB81B00F1010A4FF00047207814
:10098000000703D4AA4501DB4FF0FF3A0021B7F17D
:10099000004F0DF143088DF8431024D002202B2383
:1009A000002F01DA7F422D230A21021EA0F101004F
:1009B00000DC5FB197FBF1FC97FBF1F201FB1C7CC3
:1009C00017460CF1300C08F801CDEEE7A8F1010054
:1009D00003702188090501D5452100E06521A0F1BA
:1009E000010800F8011C09980FA9A1EB0807FF1DD9
:1009F00000B10120411901EBEA70A1693844081ADD
:100A0000401EA0612078C00602D42046AFF30080CB
:100A1000099828B1D4E901219047206A401C20623E
:100A20002078C00622D52046AFF300801EE0002EBD
:100A300004DBB34502DD01A8805D00E03020D4E98D
:100A400001219047206A401C2062761CAAF1010017
:100A50005FEA000A0AD100F03FF8C0680168405C14
:100A6000D4E901219047206A401C2062281EA5F18C
:100A70000105DCDC07E0D4E9012118F8010B9047FF
:100A8000206A401C2062381EA7F10107F3DC2046D3
:100A9000AFF30080032011B041E6000001694A1C59
:100AA00002610878704700B58FB0CDE901310021AF
:100AB000059105497944CDE9031011466846FFF7D1
:100AC000D3FC0FB000BD0000E5FFFFFF0A6802F88D
:100AD000010B0A60704700000048704720040020A6
:100AE00030B5B0F10A024FEA900E71F100034EEA00
:100AF000817EB0EB0E0061EB91014FEA101E4EEAD1
:100B0000017E10EB0E0041EB11114FEA102E4EEA60
:100B1000016E10EB0E0041EB11214FEA104E4EEA30
:100B2000014E10EB0E0041EB1141401841F1000164
:100B30004FEAD00040EA41704FEAD10110EB800546
:100B40004FEA810444EA907444EB01046D1944EBCC
:100B50000404521BA3414FF0000348BF0A3200D5E2
:100B600030BD401C41F1000130BD00002DE9F041D5
:100B70001F46044603260168072A01F4006004DBCF
:100B800008B116A505E016A503E008B115A500E01B
:100B900015A521F010002060A069C01EA0610FB152
:100BA000401EA0612046AFF300804FB1D4E901217F
:100BB00038469047206A401C2062C01C206206E034
:100BC000206AFAE7D4E9012115F8010B9047761E57
:100BD000F8D22046AFF30080BDE8F0814E414E00D0
:100BE0006E616E00494E4600696E66002DE9F04761
:100BF000814616468AB0354878440DC88DE80D0008
:100C000032487844801C03AC0DC884E80D0041F6DE
:100C10009B300844372190FBF1F290FBF1F5A5F1F0
:100C2000800501FB12041B3C02D56442012000E058
:100C30000020DFF898A080460027FA44AAF1BE0AF7
:100C40000EE0E0070AD03246684607EB4701012371
:100C50000AEB810100F046FB8DE8070064107F1C61
:100C6000002CEED1194F7F44AE3F19E0E80715D0B4
:100C700007EB04100DF1180A90E80E008AE80E0048
:100C8000C068F04201D1981908903246012306A9A4
:100C900003A800F027FB03AB83E807006D10641C7A
:100CA000002DE3D14FF0010332466946B8F1000F41
:100CB00003A802D000F001FB01E000F013FBC9E93A
:100CC0000001C9F808200AB0BDE8F087247F0000C1
:100CD00000487047000400207546FFF7F9FFAE4654
:100CE00005006946534620F00700854618B020B538
:100CF000FFF7E0FABDE820404FF000064FF0000794
:100D00004FF000084FF0000B21F00701AC46ACE8B3
:100D1000C009ACE8C009ACE8C009ACE8C0098D4620
:100D2000704710B50446AFF300802046BDE8104080
:100D3000FFF7ABBA4FF0013C50F8042B51F8043BDD
:100D40009A4221D1A2EB0C03934313EACC1317D19F
:100D500050F8042B51F8043B9A4215D1A2EB0C0336
:100D6000934313EACC130BD150F8042B51F8043BF6
:100D70009A4209D1A2EB0C03934313EACC13DBD0C4
:100D80004FF00000704700BFD01A01BAB1FA81F1EC
:100D900001F0180122FA01F0CB40C1F12001DBB2D1
:100DA000C0B2C01A2CFA01F3D11A914311EAC3114F
:100DB000E6D1704701491820ABBEFEE726000200CD
:100DC00070475FEA400C08BF91F0000F4FEA8C2398
:100DD0004FEAC12243EA51514FEA1C5018BF00F5B7
:100DE000F0404FEA300018BF41F000415FEA6C5C10
:100DF00000F02980BCF1FF3F08BF40F08040704701
:100E0000130C06BF12044FF0100C4FF0000C130E21
:100E100004BF12020CF1080C130F04BF12010CF1F5
:100E2000040C930F04BF92000CF1020CD30F04BF0B
:100E300052000CF1010C11464FF00002A0F11F000E
:100E4000A0EB0C00704711F0004F08BF704731F065
:100E500000413FF4D5AF0B0C06BF09044FF0100C56
:100E60004FF0000C0B0E04BF09020CF1080C0B0F25
:100E700004BF09010CF1040C8B0F04BF89000CF1B5
:100E8000020CCB0F04BF49000CF1010CCCF1200384
:100E9000A0EB0C0022FA03F302FA0CF241EA030180
:100EA00000F10100704720F07F4C80EA030023F03E
:100EB0007F47ACEB070303F57C5300F0004003F1E0
:100EC000FF032DE980494FEA154B09B44FEA14435B
:100ED00025EA0B4E24EA03480FF2042606EB1327FB
:100EE00049083E785FEA320203FB0667C7F5000750
:100EF00007FB06F64FEA54374FEAD64606F10206DC
:100F000007FB066CCCF1005C4FEA1C472CEA074C4F
:100F100007FB06F40CFB06F504EB15464FEA9616A4
:100F200034BF00204FF000404FEAD13706FB07FCEA
:100F30004FEA1C4C0CFB0BF7D21B03FB0CF761EBCD
:100F400007010CFB0EF7B0EB074072EB17420CFBEE
:100F500008F734BFA2EB0742B2EB074261EB17413F
:100F60004FEA0C444FEA910706FB07FC4FEA1C4C82
:100F70000CFB0BF7B0EBC74072EB573203FB0CF7DF
:100F800034BFA2EBC742B2EBC74261EB57310CFB57
:100F90000EF7B0EBC70072EB57720CFB08F734BFCB
:100FA000A2EBC702B2EBC70261EB5771039F4FEA96
:100FB000816141EA921104EBCC044FEAD1374FEA48
:100FC000826206FB07FC42EA90124FEA80604FEA19
:100FD0001C4C0CFB0BF7D21B03FB0CF761EB07015E
:100FE0000CFB0EF7B0EB074072EB17420CFB08F757
:100FF00034BFA2EB0742B2EB074261EB17414FEA65
:101000008C554FEA910704EB9C2406FB07FC4FEA42
:101010001C4C0CFB0BF7B0EBC74072EB573203FBD9
:101020000CF734BFA2EBC742B2EBC74261EB5731BA
:101030000CFB0EF7B0EBC70072EB57720CFB08F716
:1010400034BFA2EBC702B2EBC70261EB577115EBDD
:101050004C254FEA816141EA92114FEA82624FEAE0
:10106000D13742EA901206FB07FC44F100044FEA34
:1010700080604FEA1C4C0CFB0BF7D21B03FB0CF7F8
:1010800061EB07010CFB0EF7B0EB074072EB174268
:101090000CFB08F734BFA2EB0742B2EB074261EB4F
:1010A000174115EB1C154FEA813141EA92414FEA95
:1010B000823242EA90424FEA80304FEA0C7644F1A5
:1010C000000448EA03434EEA0B484FF0000EB2EB2F
:1010D000080C71EB030724BF624639464EEB0E0E37
:1010E0004FF0000B0018524149414BEB0B0BB2EB98
:1010F000080C71EB03077BF1000B24BF62463946F5
:101100004EEB0E0E4FF0000B0018524149414BEBD5
:101110000B0BB2EB080C71EB03077BF1000B24BF48
:10112000624639464EEB0E0E51EA020718BF46F0F2
:10113000010616EB0E7655F1000254F1000103D5BD
:10114000BDE88901BDE80088BDE88901BDE8004827
:10115000B619524141EB0101A3F1010370478080B0
:101160007F7E7D7C7B7A7978777676757473727101
:1011700071706F6E6E6D6C6C6B6A6A6968686766B9
:1011800066656464636362616160605F5F5E5E5D4B
:101190005D5C5C5B5B5A5A595958585757565655BF
:1011A00055555454535352525251515050504F4F21
:1011B0004F4E4E4D4D4D4C4C4C4B4B4B4A4A4A4971
:1011C00049494848484747474746464645454544B4
:1011D0004444444343434342424242414141002B41
:1011E0009C4630D477002BD01CB54FEA370703B4A8
:1011F0004FF010004FF01001BAF1000F06D0BCF113
:10120000000FDCBF40F0080040F008014FF0000084
:101210000FBCBDE810400BF1010BBBF1010F08BF83
:101220005FEA170722BF12F1010211F101014FF02D
:10123000004143F1000300F0004043EA0000704722
:10124000F9D35708D0E746EA064613F1400F4FEAB4
:1012500016461FDD13F1200FDFBF16430A4600219B
:1012600020335B42BED0C3F1200746EA064602FAAD
:1012700007F74FEA164646EA0706C3F1200722FAA7
:1012800003F201FA07F721FA03F14FF0000342EAF3
:101290000702A7E746EA020646EA06464FEA16466E
:1012A00046EA0106BCBF46EA0646360C4FF000038C
:1012B0004FF000024FF0000194E72DE9804C9A4670
:1012C000934670B491E8380007C831EA400C48BF33
:1012D00034EA430C03D5FFF7E6FDFFF780FFF0BCCF
:1012E000BDE8008C2DE9804C9A46934670B491E895
:1012F000380007C810F0804F08BF13F0804F03D1AB
:1013000000F005F8FFF76BFFF0BCBDE8008C20F0A3
:101310007F4780EA030023F07F4C07EB0C03A3F523
:101320007C5300F00040A3F1FE0392F0000F00F0A8
:10133000B38095F0000F00F077802DE901494FEA66
:1013400011404FEA144621EA004800FB06FC24EA5B
:10135000064708FB06F607FB08F800FB07F718EB43
:1013600006484CEB164C4FEA124B18EB07484FEA75
:1013700015464CEB174022EA0B4E0BFB06FC25EA08
:1013800006470EFB06F607FB0EFE0BFB07F71EEBF0
:10139000064E4CEB164C4FF000061EEB074E4CEB86
:1013A000174B18EB0B0840F1000018EB0E0B58EB35
:1013B000000840F100008F1A4FF000013CBFC94304
:1013C000661B14BFB5EB040C00213CBFC943F61BE0
:1013D0004FEA17444EEA8E0E27EA04454FEA1C47AF
:1013E00004FB07622CEA074C05FB07F70CFB05F62C
:1013F00004FB0CFC16EB074642EB174216EB0C46BF
:1014000042EB1C421BEB060658EB0202414146EA46
:101410009E0601D5BDE80189B619524141EB010193
:10142000A3F10103BDE801894FEA14454FEA1147D2
:1014300024EA054621EA074C05FB07F406FB07F7FB
:101440000CFB06F105FB0CFC11EB074144EB1744C8
:101450004FEA124711EB0C4144EB1C4422EA074CC3
:1014600005FB07F206FB07F70CFB06F605FB0CFC79
:1014700016EB074642EB174216EB0C4642EB1C45B7
:101480006A1854F1000148BF7047B619524141EB48
:101490000101A3F10103704795F0000F37D04FEA27
:1014A00011424FEA144721EA024624EA074C02FBA4
:1014B00007F106FB07F70CFB06F402FB0CFC14EB30
:1014C000074441EB17414FEA154714EB0C4441EB3D
:1014D0001C4125EA074C02FB07F506FB07F70CFB4E
:1014E00006F602FB0CFC16EB074645EB174516EB20
:1014F0000C4645EB1C42121951F1000148BF7047E0
:10150000B619524141EB0101A3F1010370474FEAC3
:1015100014454FEA114724EA054621EA074C05FB2A
:1015200007F106FB07F70CFB06F24FF0000605FB80
:101530000CFC12EB074241EB174112EB0C4251EB52
:101540001C4148BF7047921841EB0101A3F1010310
:1015500070470000014800F07BBC00004400002000
:10156000014800F075BC0000B000002070B50446D2
:101570000068816811F0010F2DD18168174A11426E
:101580001AD18168D5432940491C816001F0D6F900
:1015900006461BE0816811F0010F03D181682940E4
:1015A000491C816001F0CAF9801B02280ED920680D
:1015B0000068C043C00709D0E06D40F01000E0654E
:1015C000206E40F001002066012070BD2068016897
:1015D000C943C907DED1002070BD00003F00008074
:1015E000FEE70000014800F0EBBF0000B002002061
:1015F000014800F0E5BF0000100300200D4902681B
:101600008A4201D20C4901E00B492031D2B21423A5
:10161000083AB2FBF3F2436C02F01F0223F003031B
:101620001944816404498031C164012191400165FC
:101630007047000008040240000802400179074A90
:1016400002EB81024265054A4432491E826501F07F
:101650001F0201219140C16570470000FC08024053
:101660000B4800B5C16C87B041F00401C164C06C87
:10167000694600F0040005900820009000200190C9
:1016800003200390034801F06BF807B000BD000091
:1016900000100240000800480B4800B5C16C87B03C
:1016A00041F00401C164C06C694600F0040005907B
:1016B000082000900120019003200390034801F0CE
:1016C0004FF807B000BD00000010024000080048BD
:1016D000704703E01621491E89B2FCD2401EF9D2A0
:1016E000704772B6FEE700002DE9FF4F83B08946D0
:1016F0000446DDF840B00090A4E080283ED20D28DA
:1017000004D0202808D9203880B206E009F1100062
:101710001FFA80F9009C2EE00020DFF838A1002697
:101720004FF0800801900198002506EB001700BFDC
:101730001AF8071028FA05F0014206D009EB060056
:1017400081B2601980B2059A09E0DDE9050188429D
:1017500007D009EB060081B2601980B2069A00F04A
:101760007DF86D1CEDB2082DE2D3761CF6B2102E7A
:10177000D9D30834A4B20BF1010B63E04FF0000899
:10178000354808EB08119BF8002010F811309342FF
:101790004DD100EB4100019041789BF8010081425E
:1017A00045D100254FF0800A0198002600EB45073F
:1017B0002AFA06F0B978014206D009EB050081B299
:1017C000A01980B2059A09E0DDE90501884207D039
:1017D00009EB050081B2A01980B2069A00F03EF82C
:1017E000761CF6B2082EE3D30026F9782AFA06F022
:1017F000014207D009EB050081B2A019083080B280
:10180000059A0AE0DDE90501884208D009EB0500E8
:1018100081B2A019083080B2069A00F01FF8761C39
:10182000F6B2082EE1D36D1CEDB2102DBCD308F139
:1018300001001FFA80F8B8F1640FA1D310340BF146
:10184000020BA4B29BF8000000287FF456AF07B04B
:10185000BDE8F08FB46F0008267D000810B514466F
:1018600003F00CF92046BDE8104003F01BB97047A7
:1018700070477047704770472DE9F04F044690F865
:1018800058009BB00F464FF0000B012812D00120EA
:1018900084F8580000261796189620684FF0A04844
:1018A000DFF81C91DFF81CA1474D404506D12846C2
:1018B000009508E002201BB0BDE8F08F48450AD132
:1018C0005046CDF800A002F055FF0090206802F0CD
:1018D00051FF40B109E0E06D40F02000E06584F880
:1018E00058600120E7E7009850B1E06D40F020001B
:1018F000E0654FF0010B00BF84F858605846DAE706
:1019000020684146884201D0A84201D12F4800E01A
:101910002F48D7F800C02F4B40F61F72BCF1000FC4
:101920002DD0D0F808C094F838802CF4604C4CEAE4
:10193000483CD7F804804CEA080CC0F808C0D4F83A
:1019400000C08C4501D0AC4504D18968AB6801F07A
:10195000010109E0D9F80810DAF8085001F0010196
:1019600005F001059B68294303F001031943C3D126
:10197000BB68396819438368934319431DE087683E
:1019800027F46047876027688F4201D0AF4204D1B7
:101990008968AB6801F0010109E0D9F80810DAF8AC
:1019A000085001F0010105F001059B68294303F08F
:1019B00001031943A0D18168914381609CE7000035
:1019C00000040050000500500001005000030050CA
:1019D00000070050000600502DE9F84F002704468C
:1019E000009790F85800DFF81C840D46B94601288E
:1019F00011D0012684F85860206802F0B7FE60B16B
:101A0000E06D40F02000E0655FF0010784F8589039
:101A10003846BDE8F88F0220FBE7D5E900210C230A
:101A2000206803EA91131844036B01F01F014FF083
:101A30001F0C0CFA01FCC2F3846223EA0C038A40F7
:101A400013430363206802F091FE8246206802F08F
:101A500089FE5AEA00003CD1AA6829682068B2F1E0
:101A6000004F37D002F092FE2068416921F000411A
:101A7000416120686969C268C2F3C10252009140A5
:101A80002A69042A31D000EB82002B68026EDFF84D
:101A900078C303F0F84302EA0C020B431A4342F006
:101AA0000041016622682869A96902EB8000026E84
:101AB00022F080720A430266297F22682869012980
:101AC00010D0002102EB8000026E22F000720A4367
:101AD00002667DE0002202F059FE2068416941F073
:101AE0000041C5E74FF00071ECE7002102F034FE41
:101AF000400320684FF0000172D002F02DFE90FAF2
:101B0000A0F0B0FA80F1286842036ED090FAA0F0FD
:101B1000B0FA80F0814204D100221146206802F020
:101B200044FE0121206802F017FE400320684FF0B8
:101B300001015DD002F010FE90FAA0F0B0FA80F141
:101B40002868420359D090FAA0F0B0FA80F08142A0
:101B500004D100220121206802F027FE0221206822
:101B600002F0FAFD400320684FF0020148D002F075
:101B7000F3FD90FAA0F0B0FA80F12868420344D057
:101B800090FAA0F0B0FA80F0814204D10022022144
:101B9000206802F00AFE0321206802F0DDFD400308
:101BA00020684FF0030133D002F0D6FD90FAA0F088
:101BB000B0FA80F1286842032FD090FAA0F0B0FA72
:101BC00080F0814204D100220321206802F0EDFD63
:101BD0002068816811F0010F22D0ACE000E004E041
:101BE00002F0BAFDC0F384618DE7C0F3846091E731
:101BF00002F0B2FDC0F38461A2E7C0F38460A6E7FF
:101C000002F0AAFDC0F38461B7E7C0F38460BBE7CC
:101C100002F0A2FDC0F38461CCE7C0F38460D0E79A
:101C20002A7B296850F8B03FC1F3120C23EA0C0359
:101C300002F0180C754A22FA0CF20A4013430360B2
:101C4000E968414577D1286841031CD090FAA0F19A
:101C5000B1FA81F1491C01F01F0109294FEA403115
:101C600032D8002912D000BF90FAA0F1B1FA81F168
:101C700001F1010101F01F0106FA01F609D100BFCF
:101C8000C0F3846109E0C0F38461E3E7C0F38461D9
:101C9000EEE790FAA0F1B1FA81F101F1010101F052
:101CA0001F0146EA816102D1C0F3846003E090FA2B
:101CB000A0F0B0FA80F000F1010000F01F0000EB8E
:101CC000400041EA005132E000290ED090FAA0F124
:101CD000B1FA81F101F1010101F01F0106FA01F6EB
:101CE00006D100BFC0F3846106E0C0F38461F1E770
:101CF00090FAA0F1B1FA81F101F1010101F01F01A7
:101D000046EA816102D1C0F3846003E090FAA0F05A
:101D1000B0FA80F000F1010000F01F003C4A00EB37
:101D2000400002EB005041EA000141F00071AA6856
:101D3000206802F02BFD37482B6803423FF466AE63
:101D400021684FF0A04C3448344E354D614501D0E8
:101D5000A94201D1024600E032469268DFF8C48011
:101D600002F0E072434503D0DFF8BC80434521D147
:101D70005FEA02281ED4614506D02C4B99427FF4BD
:101D800045AEA94200D0304642F40001826822F0FC
:101D9000E0720A438260264826490068B0FBF1F0F1
:101DA000401C00EB4000800000E0401E0090002836
:101DB000FBD12BE6DFF8808043450FD15FEAC218E4
:101DC0000CD4A94202D11D4B9942F2D0614502D0F8
:101DD000A94200D0304642F080710CE0DFF860800C
:101DE0004345E6D15302E4D4A942E2D0614500D094
:101DF000304642F48001826822F0E0720A43826039
:101E000004E6000000007F4000F0FF03FFFF070032
:101E1000000020FE00000880000300500007005072
:101E200000010050000021C31000C09000060050C7
:101E300024000020400D0300000052C700050050A0
:101E4000000084CB704770470068006C704700004A
:101E50002DE9F84F04460068066845684FF0A04831
:101E6000DFF89092404501D0484501D1A24800E0FA
:101E7000A248806800F01F07B0070ED5A8070CD550
:101E8000E06DC00603D4E06D40F40060E0652046DC
:101E9000FFF7EDFC216802200860DFF864B2DFF88C
:101EA00064A2700701D5680703D430073FD528071F
:101EB0003DD5E06DC00603D4E06D40F40070E065F0
:101EC000206802F05BFC60B32068484501D14246BF
:101ED00004E0584501D1524600E00246824208D053
:101EE0003FB1052F05D0092F03D0484503D1414606
:101EF00006E0C16805E0584501D1514600E00146C1
:101F0000C96889040DD4016809070AD502F02EFCBE
:101F100058B3E06D40F01000E065206E40F0010025
:101F200020662046FFF78EFF21680C200860B0066F
:101F300001D5A80603D470065FD568065DD5E06DAF
:101F4000C00603D4E06D40F40050E0652068C16C29
:101F500011F4C07F1AD00021009102F00FFC02465C
:101F60002068484514D1434617E02068416821F0B5
:101F70000C014160E06D20F48070E065E06DC0040C
:101F8000CFD4E06D40F00100E065CAE70121E3E74E
:101F9000584501D1534600E00346834208D03FB183
:101FA000062F05D0072F03D0484503D1414606E050
:101FB000C16805E0584501D1514600E00146C968B5
:101FC000009BA3B18B0102D58AB18A040FD40268A9
:101FD00052060CD589020AD402F0C4FBF0B3E06DBE
:101FE00040F01000E065206E40F0010020662046C1
:101FF000FFF73EFC21686020086030060BD52806FC
:1020000009D5E06D40F48030E065204600F098F995
:10201000216880200860F0050CD5E8050AD5E06D40
:1020200040F40030E0652046FFF724FC21684FF4BF
:1020300080700860B0050CD5A8050AD5E06D40F4A5
:102040008020E0652046FFF716FC21684FF4007001
:102050000860F00631D5E8062FD500E009E0E06B16
:10206000E8B12068EFB3404501D0484512D122487D
:1020700011E02068416821F060014160E06D20F4CA
:102080008050E065E06DC005B1D4E06D40F0010026
:10209000E065ACE71948806800F4604050B1E06D3D
:1020A00040F48060E065206E40F00200206620462B
:1020B000FFF7C9FE216810200860700517D5680574
:1020C00015D5E06D40F48040E065206E40F00800DA
:1020D000206621684FF4806008602046BDE8F84F14
:1020E00000E001E0FFF7C5BBC068C007D6E7BDE868
:1020F000F88F00000001005000030050000700505E
:102100000005005000040050F8B54FF00005040031
:102110002E46009502D0E06D10B107E00120F8BD19
:10212000204600F00FF9266684F858602068816820
:10213000C1F3407119B18168754A1140816020680E
:102140008168C1F3007189B98168724A114041F018
:1021500080518160704871490068B0FBF1F0400027
:10216000801C00E0401E00900028FBD120688168A0
:10217000C1F3007141B9E16D41F01001E165216EDB
:1021800041F001012166012502F0F0FAE16DC90676
:1021900000D430B1E06D40F01000E0650125284624
:1021A000F8BDE06D20F4807040F00200E06520682A
:1021B000816811F0010F27D14FF0A043584A98428F
:1021C00001D0904204D19968966801F001010AE0BB
:1021D00054498968544E01F00101B66806F00106C1
:1021E0003143524EB66806F0010631430CD1984295
:1021F00001D0904201D14E4800E04E4861688268AB
:1022000022F47C120A438260E168E06B627F08433B
:10221000A16841EA4231084394F8241040EA0140A1
:10222000012904D1218D444A02EB41410843E16A6E
:1022300029B101F47871226B014342EA010021685F
:10224000CA683E4B1A400243CA6020680169626B4B
:1022500021F0406111430161206802F087FA0646CF
:10226000206802F07FFA30432ED1207F94F8381096
:10227000800340EA41012068C26844F202039A43A5
:102280000A43C26020690028206801690AD041F42D
:1022900080310161206850F8C01F22696FF30D0181
:1022A000114307E021F480310161206850F8C01F1C
:1022B0006FF30D01016094F8400001280CD02068F4
:1022C000016921F001010161606901282068016B49
:1022D00021F00F0111D013E0D4E911010843D4E932
:1022E00013121143084321680A6940F2FC739A43B0
:1022F000104340F001000861E6E7226A521E1143D4
:102300000163E06D20F0020040F00100E06546E767
:10231000C0FFFF5FC0FFFF7F24000020400D0300CF
:10232000000100500004005000050050000600505D
:1023300000030050000700500000FEFF0740F0FFC0
:1023400070470000F0B587B0044614216846FEF7D8
:1023500012F92B4B294F26681A68002403252948B7
:102360002949521CBE4220D11A60012A07D1CA6CE9
:1023700042F48042CA64CA6C02F480420592CA6C7C
:1023800042F00202CA64C96C029401F00201059194
:102390000221CDE90015694600F0E2F9002211465C
:1023A0002F2000F031FB2F2023E0184FBE4222D116
:1023B0001A60012A07D1CA6C42F48042CA64CA6C0E
:1023C00002F480420592CA6C42F00202CA64C96CEF
:1023D000029401F0020105914FF48041CDE900150E
:1023E000694600F0BDF9002211463D2000F00CFBCB
:1023F0003D2000F0FBFA07B0F0BD000000040050E3
:102400002000002000040048001002400005005099
:102410002DE9F041044600684FF0A045444FA84222
:1024200001D0B84201D1434900E04349896801F035
:102430001F0602F09BF918B102210846BDE8F081A1
:1024400094F8580001280CD0012084F85800204648
:10245000FFF78CF801004FF0000204D084F85820F8
:10246000EBE70220EAE7E06D40F60163984340F4B1
:102470008070E0652068314BDFF8C4C0B84201D1FC
:10248000AE4604E0984201D1E64600E08646864525
:1024900000D02EB9D4F85CE02EF4801EC4F85CE0C5
:1024A000D4F85CE05FEACE4E06D5D4F860E02EF0BA
:1024B000060EC4F860E000E022664FF01C0EC0F883
:1024C00000E084F858202068B84201D12A4604E090
:1024D000984201D1624600E0024682420ED06EB1BF
:1024E000052E0BD0092E09D0E26D42F48012E26570
:1024F000B84213D0984210D165460FE0C2689201ED
:1025000005D5E26D22F4005242F48052E265826801
:102510000C4B1A40121D82608FE70546E868800167
:102520008BD5E06D20F4005040F48050E06584E7E6
:10253000000100500003005000070050000500504B
:1025400000040050C0FFFF7F70B590F825200024E4
:1025500001212346022A07D00422C26380F82510F5
:1025600080F82430012429E00268156825F00E0562
:1025700015600268156825F001051560826C156804
:1025800025F48075156090F84420056C02F01F0258
:1025900001FA02F26A60D0E913255560426D32B14A
:1025A000156825F480751560D0E91625556080F80A
:1025B000251080F82430816B01B18847204670BD1A
:1025C000F0B4016C0C6801680D6890F8442002F0CA
:1025D0001F06042202FA06F3234211D06B070FD51F
:1025E0000B689B0603D40B6823F004030B6090F880
:1025F000441001F01F018A40016C4A60016B1DE02C
:10260000022303FA06F727424FF0000C4FF00102B5
:1026100018D0AF0716D50C68A40605D40C6824F0B2
:102620000A040C6080F8252090F8441001F01F0186
:102630008B40016C4B6080F824C0C16A00291AD01D
:10264000F0BC08470823B340234214D02B0712D50F
:102650000B6823F00E030B6090F84410036C01F03C
:102660001F0102FA01F15960C26380F8252080F849
:1026700024C0416BE2E7F0BC7047000070B5040075
:102680000CD02B4A21681420914209D2294A0A44CD
:10269000B2FBF0F08000606427480AE0012070BDC2
:1026A000234A52420A44B2FBF0F0800060642048A2
:1026B00008382064022084F825000A6847F6F07084
:1026C0008243D4E902031843D4E904352B43184369
:1026D000A3691843E3691843236A18431043086049
:1026E0002046FEF78BFFA0680025B0F5804F00D193
:1026F0006560A16C20790860D4E9130141606068CD
:10270000401E032808D82046FEF798FF606D05603C
:10271000D4E91601416002E06565A565E565E563FC
:10272000012084F8250084F82450002070BD0000AA
:1027300008040240F8FFFDBF0000024070B50446E7
:1027400000F0FCF80546601C02D0044840680444D0
:1027500000F0F4F8401BA042FAD370BD2C0000201A
:102760002DE9FC4FDFF8A0A1002301250AF1040B9D
:1027700003244FF00F0C0BF1040EBDE005FA03F635
:1027800032406FD04F68012F05D0022F03D0112F98
:1027900001D0122F17D1D0F808905F0004FA07F883
:1027A00029EA08090097D1F80C8008FA07F848EAE6
:1027B0000908C0F808804768B7430E79C6F30016C9
:1027C0009E403E434660C6684FEA430804FA08F755
:1027D000BE4301978F6807FA08F73743C7604E6812
:1027E000022E01D0122E13D1DE0800EB86060096D1
:1027F000366A5F07FF0E0CFA07F926EA0906D1F8D8
:10280000109009FA07F949EA0609009EC6F82090D7
:102810000668019FBE430F7907F0030707FA08F720
:10282000374307604E68F60065D5384E376E47F07F
:1028300001073766366E23F0030706F0010600969F
:10284000334E3E44B146B6689F074FEA17780CFAFC
:1028500008F7BE43B0F1904F05D02E4FB84204D1D7
:10286000012717E047E0002714E02B4FB84201D1C1
:1028700002270FE0294FB84201D103270AE0284F71
:10288000B84201D1042705E0264FB84201D10527FF
:1028900000E0062707FA08F73743C9F80870DAF8A6
:1028A00000605746D1F8048096435FEAC83800D5E7
:1028B00016433E60DBF800605F46D1F80480964323
:1028C0005FEA883800D516433E60DEF80060774640
:1028D000D1F8048096435FEAC82800D516433E60CD
:1028E000094F0C373E68D1F8048096435FEA882888
:1028F00000D516433E605B1C0A6832FA03F67FF48B
:102900003DAFBDE8FC8F0000000401400010024014
:10291000000001400004004800080048000C004886
:1029200000100048001400480069084000D0012051
:1029300070470AB1816170478162704701488068C1
:10294000704700002C000020024881684268114452
:10295000816070472C00002010B50024032000F097
:1029600073F80F2000F008F808B1012401E000F02E
:1029700025F8204610BD000070B50E4E0546002417
:10298000706898B14FF47A71B1FBF0F00A490968A8
:10299000B1FBF0F000F00AFF40B9102D06D2002282
:1029A0002946501E00F030F8356000E00124204632
:1029B00070BD00002C000020240000200A4882B0D6
:1029C000016E41F001010166016E01F0010100910B
:1029D000816D41F080518165806D00F080500090E4
:1029E00002B000F0A1B8000000100240002809DB8E
:1029F00000F01F02012191404009800000F1E02019
:102A0000C0F8001170470000F0B40E4B1B680C4674
:102A1000C3F30223C3F10705042D00D90425191DB2
:102A2000072901D2002300E0DB1E012606FA05F18A
:102A3000491E214099409E40761E16403143F0BC0D
:102A400003F000BA0CED00E0064900F00702086848
:102A50004FF6FF03184040EA0220034A1043086083
:102A6000704700000CED00E00000FA052B492C4BEC
:102A70000A6832214A432B4940B1B0F5007F08680B
:102A800029D020F4C06040F480602CE00868C0F3D6
:102A90004120022804D051F8800F20F4807022E0F9
:102AA000D1F8800020F48070C1F88000086820F41C
:102AB000C06040F400700860B2FBF3F0401C00E01E
:102AC000401E4A69520501D50028F9D148694005E0
:102AD0000AD503207047C0F34120022806D051F8E0
:102AE000800F40F48070086000207047D1F88000AB
:102AF00040F48070C1F88000086820F4C06040F4A1
:102B000000700860B2FBF3F0401C00E0401E4A6910
:102B10005205DBD50028F9D1D8E7000024000020B9
:102B200040420F00007000400248816841F480413B
:102B300081607047007000402DE9F843044600684A
:102B40000026BB4D00035ED5A86D0027C00008D449
:102B5000A86D40F08050A865A86D012700F0805056
:102B60000090DFF8D092D9F8001041F48071C9F8D4
:102B70000010FFF7E3FE804606E000BFFFF7DEFE31
:102B8000A0EB080002282BD8D9F80000C005F5D525
:102B9000D5F8900010F4407014D0216D814211D00E
:102BA000D5F89000D5F8901020F4407041F48031B1
:102BB000C5F89010D5F8901021F48031C5F8901028
:102BC000C5F89000C00711D0FFF7B8FE804641F26B
:102BD000883907E0FFF7B2FEA0EB0801494501D9AB
:102BE00003260BE0D5F890008007F3D5D5F89000C8
:102BF000216D20F440700843C5F890001FB1A86D06
:102C000020F08050A8652078C00707D0D5F888004C
:102C1000616820F003000843C5F888002078800729
:102C200007D5D5F88800A16820F00C000843C5F846
:102C300088002078400707D5D5F88800E16820F0A3
:102C400030000843C5F888002078000707D5D5F87C
:102C50008800216920F0C0000843C5F8880020786A
:102C6000C00607D5D5F88800616920F44070084394
:102C7000C5F888002078800607D5D5F88800A169B6
:102C800020F440600843C5F888002078400607D546
:102C9000D5F88800E16920F440500843C5F8880061
:102CA0002078000607D5D5F88800216A20F4404036
:102CB0000843C5F888002088C00507D5D5F88800E6
:102CC000616A20F440300843C5F88800206880031A
:102CD00007D5D5F89C00A16A20F003000843C5F889
:102CE0009C002088800507D5D5F88800E16A20F48B
:102CF00040200843C5F88800208840050FD5D5F846
:102D00008800216B20F440100843C5F88800206B30
:102D1000B0F5801F03D1E86840F48010E860208897
:102D200000050FD5D5F88800616B20F440000843FA
:102D3000C5F88800606BB0F5800F03D1E86840F4F7
:102D40008010E8602088C0040FD5D5F88800A16BFA
:102D500020F040700843C5F88800A06BB0F1807F78
:102D600003D1E86840F48010E86020884FF00061EB
:102D700080040ED5D5F88800E26B20F04060104347
:102D8000C5F88800E06B884203D1E86840F4801001
:102D9000E860208840040ED5D5F88800226C20F029
:102DA00040601043C5F88800206C884203D1E86871
:102DB00040F48010E860208800040FD5D5F8880022
:102DC000616C20F040500843C5F88800606CB0F199
:102DD000805F03D1E86840F48030E8602068C00379
:102DE0000FD5D5F88800A16C20F040400843C5F805
:102DF0008800A06CB0F1804F03D1E86840F48030C7
:102E0000E860206840030FD5D5F89C00E16C20F401
:102E100040100843C5F89C00E06CB0F5001F03D1DA
:102E2000E86840F48010E8603046BDE8F8830000B0
:102E300000100240007000402DE9F0470E460500EA
:102E40004FF0000725D0DFF8AC81D8F8000000F083
:102E50000F00B0420CD2D8F8001021F00F0131431E
:102E6000C8F80010D8F8000000F00F00B04210D1F0
:102E70002968614CC80741F2883A5AD06868DFF87F
:102E80007C91032808D0022820682DD04005002816
:102E90002CDB0120BDE8F08720688001F9D5E068CF
:102EA00000F00302E068C0F30310401C032A19D0AD
:102EB000534A00BFB2FBF0F0E268C2F3062250436F
:102EC000E268C2F34162521C5200B0FBF2F0484586
:102ED00017D9A06810F0F00F0CD0880711D5A8689A
:102EE00040B10EE0474AE5E78003D0E700F0B6F8CE
:102EF000484506D9A06820F0F00040F08000A060AE
:102F00008027A068696820F003000843A060FFF7ED
:102F100015FD814606E000BFFFF710FDA0EB09019B
:102F200051453AD8A068696800F00C00B0EB810FF9
:102F3000F2D12868810714D5400703D5A06840F472
:102F4000E060A0602878000705D5A06820F46050F4
:102F500040F4E060A060A068A96820F0F000084399
:102F600004E0802F03D1A06820F0F000A060D8F822
:102F70000010404601F00F01B14216D9016821F05E
:102F80000F0131430160FFF7D9FC074607E000BF9E
:102F9000FFF7D4FCC11B514501D903207AE7D8F8CB
:102FA000000000F00F00B042F2D12878400705D5AC
:102FB000A068E96820F4E0600843A0602878000772
:102FC00006D5A068296920F4605040EAC100A060DD
:102FD00000F044F8A1680C4AC1F30311515C01F000
:102FE0001F01C8400949086009480068BDE8F0476A
:102FF000FFF7C2BC002002400010024000B4C4042D
:103000000024F40000366E019C6F000824000020AC
:103010002C0000200548064900688968054AC1F36C
:103020000221515C01F01F01C840704724000020BC
:1030300000100240AC6F0008054806490068896826
:10304000054AC1F3C221515C01F01F01C84070471D
:103050002400002000100240AC6F0008184910B591
:103060008868C0F381021748012A0BD08A68164B82
:10307000C2F38102022A06D08A68C2F38102032ABF
:1030800003D0002010BD184610BDCA6802F003042A
:10309000CA68C2F30312521C032C02D0B0FBF2F038
:1030A00001E0B3FBF2F0CA68C968C2F306225043DC
:1030B000C1F34161491C4900B0FBF1F010BD0000B3
:1030C000001002400024F40000366E012DE9F843A0
:1030D00004007AD02078FA4DC00747D0A868E96884
:1030E00000F00C0001F003010C2802D0082817D0D2
:1030F00001E0032914D06068B0F5803F17D0B0F527
:10310000A02F286817D020F480302860286820F489
:10311000802028606068E0B1FFF710FC064614E0EC
:103120002868800322D560680028D2D01EE0286875
:1031300040F48030EDE740F480202860F7E700BFDE
:10314000FFF7FCFB801B642870D828688003F7D544
:103150000CE0FFF7F3FB064605E000BFFFF7EEFBD0
:10316000801B6428F0D828688003F7D42078800773
:103170004CD5A868E96800F00C0001F003010C28A8
:1031800002D004280DD001E002290AD0E06800280E
:1031900028682BD040F480702860FFF7CFFB0646EC
:1031A00019E02868400502D5E068002891D06868D9
:1031B000217C20F0FE4040EA01606860C148006860
:1031C000FFF7DAFB002800D120E076E1FFF7B6FB3D
:1031D000801B0228B8D828684005F7D56868217C8C
:1031E00020F0FE4040EA016068600FE020F480704B
:1031F0002860FFF7A3FB064605E000BFFFF79EFB34
:10320000801B0228A0D828684005F7D42078000742
:1032100029D560690028D5F8940013D040F001004A
:10322000C5F89400FFF78AFB064606E090E000BF71
:10323000FFF784FB801B022886D8D5F8940080070E
:10324000F6D510E020F00100C5F89400FFF776FBFA
:10325000064604E0FFF772FB801B022878D8D5F8F9
:1032600094008007F6D42078400761D5A86D002629
:10327000C00008D4A86D40F08050A865A86D012654
:1032800000F08050009090480168C90511D4016891
:10329000804641F480710160FFF750FB074604E06F
:1032A000FFF74CFBC01B022852D8D8F80000C0051D
:1032B000F6D5A068012815D00528D5F8900016D0BD
:1032C00020F00100C5F89000D5F8900020F004002F
:1032D000C5F89000A06841F28838B8B1FFF72EFB1E
:1032E00007460EE0D5F8900040F00100F0E740F00E
:1032F0000400C5F89000F5E7FFF720FBC11B41452E
:1033000026D8D5F890008007F6D50CE0FFF716FB1D
:10331000074604E0FFF712FBC11B414518D8D5F85A
:1033200090008007F6D41EB1A86D20F08050A865EB
:103330002078800629D5A0690028D5F8980013D0F8
:1033400040F00100C5F89800FFF7F8FA064606E0DD
:1033500077E000BFFFF7F2FA801B022877D8D5F894
:1033600098008007F6D510E020F00100C5F898001D
:10337000FFF7E4FA064604E0FFF7E0FA801B0228B4
:1033800065D8D5F898008007F6D4E069F0B3A9684D
:10339000C1F38101032961D00228286820F08070E0
:1033A00028600BD0E86820F00300E860E86847492F
:1033B0000840E860FFF7C2FA04464BE0FFF7BEFAA8
:1033C000064604E0FFF7BAFA801B02283FD82868B7
:1033D0008001F7D4F4E908016FF00F0202EB01114C
:1033E0000843218A5204490802EB4151A26841EA8C
:1033F00002210843217D4FF07E42490802EB4161E2
:103400000843217B40EAC160E96800E062E0304A9D
:1034100011400843E860286840F080702860E86840
:1034200040F08070E860FFF789FA044605E000BFCD
:10343000FFF784FA001B022809D828688001F7D515
:1034400048E004E0FFF77AFA001B022802D90320C3
:10345000BDE8F88328688001F4D43BE00128F7D068
:10346000E868226A00F00301914226D1616A00F007
:10347000F0020901103991421FD1A26A00F4FE4105
:10348000B1EB022F19D194F82C2000F07841B1EB68
:10349000C26F12D1218E00F4C00249084905A1F57E
:1034A0000011914209D194F8341000F0C06049082D
:1034B0004906A1F1007181420CD00120C8E700004B
:1034C000001002402C00002000700040FFFFEEFEC4
:1034D0000C809F010020BBE770B5040009D0606A32
:1034E000002540B125616561A56294F85D0040B199
:1034F0000CE0012070BD6068B0F5827FF4D0E5611A
:10350000F2E784F85C50204600F05CF8022084F872
:103510005D002068016821F040010160E1684FF41E
:10352000E062914201D9002001E04FF48050B1F5F2
:10353000706F02D0914200D0A562A188228901F467
:10354000827102F404421143227C02F00202114310
:10355000227D02F001021143228B02F4007211431A
:10356000227F02F03802114394F8202002F08002FA
:103570001143228D02F40052114322681160A169A7
:10358000042202EA114194F8242000F4805002F051
:103590001002114394F8342002F008021143A2896A
:1035A00002F4706211430143206841602068C169E0
:1035B00021F40061C1612566012084F85D000020CE
:1035C00070BD000010B586B0044614216846FCF7B3
:1035D000D2FF1249206888421ED11148016E41F481
:1035E00080510166016E01F480510591C16C41F07A
:1035F0000101C164C06C694600F001000590A02083
:103600000090022001900020029003900520049079
:103610004FF09040FFF7A4F806B010BD0030014015
:10362000001002402DE9F84F044690F85C00002796
:103630001D461646894601280DD04FF0010B84F82F
:103640005CB0FFF77BF9804694F85D00BA4601282C
:1036500004D00227A4E00220BDE8F88FB9F1000FE2
:1036600074D0002E72D0032084F85D00C4F860A0EE
:10367000C4F83890A687E687C4F840A0A4F844A010
:10368000A4F846A0C4F850A0C4F84CA0A068B0F5B7
:10369000004F09D12068016821F0400101602068D5
:1036A000016841F48041016020680168490603D443
:1036B000016841F040010160E068B0F5E06F6068CA
:1036C00023D908B1012E1CD1A06B21680088C860E5
:1036D00006E020688168890709D5A16B0988C16067
:1036E000A06B801CA063E08F401EE08709E0FFF71D
:1036F00025F9A0EB0800A84202D3681C01D046E0DF
:10370000ADB3E08F0028E4D136E008B1012E30D10E
:10371000E08F0128A06B03D921680088C8600FE002
:1037200021680078087314E0E08722E0206881684F
:10373000890714D5E18F0129A16B08D90988C160D7
:10374000A06B801CA063E08F801EEDE727E0097866
:103750000173A06B401CA063E08F401EE4E7FFF7FD
:10376000EDF8A0EB0800A84202D3681C01D00EE0DF
:103770006DB1E08F0028D9D142462946204601F09C
:10378000DDFC08B120202066A06810B105E0032709
:1037900006E02068C16880680090206E00B10127B3
:1037A00084F85DB084F85CA0384655E710B5401E3B
:1037B000B0F1807F01D3012010BD4FF0E0246061A3
:1037C0000F21601702F03EFB0020A061072020615E
:1037D000002010BD7047704770470000F0B590F8AA
:1037E0003C20012A58D0012280F83C20CA688B680E
:1037F00022F440721A434B6822F480621A430B6829
:1038000022F400621A430B6922F480521A434B6976
:1038100022F400521A430B6B22F480421A430B8BA2
:1038200022F4702242EA03421C4C036800271C4D1C
:103830001C4EA34203D0AB4201D0B34205D1D1F814
:103840001CC022F0805242EA0C02A34203D0AB42D9
:1038500001D0B3421BD1B1F828C022F4700242EA71
:103860000C52D1F820C022F0807242EA0C02D1F84A
:1038700024C022F0007242EA0C02A34203D0AB4201
:1038800001D0B34203D1C96A22F000520A435A64FC
:1038900080F83C700020F0BD0220F0BD002C0140FB
:1038A00000340140005001407047704770470000ED
:1038B000F0B590F83C20012A43D0012580F83C5017
:1038C000022280F83D2003685A689C681E4E1F4FF4
:1038D000DFF87CC0B34203D0BB4201D0634504D1C2
:1038E00022F4700E4A6842EA0E02DFF868E002EA4B
:1038F0000E02D1F800E04EEA020EC3F804E00268BE
:10390000B24212D0B2F1804F0FD0134B9A420CD07A
:10391000124B9A4209D0124B9A4206D0BA4204D0B6
:10392000104B9A4201D0624504D1896824F080038B
:103930001943916080F83D50002180F83C10084602
:10394000F0BD0220F0BD0000002C01400034014019
:10395000005001408FFFFFFD0004004000080040C0
:10396000000C004000400140704710B5040003D037
:1039700094F83D0010B107E0012010BD002084F84C
:103980003C00204600F022F8022084F83D00211D72
:10399000206801F02FFD012084F8480084F83E00E3
:1039A00084F83F0084F8400084F8410084F8420025
:1039B00084F8430084F8440084F8450084F8460005
:1039C00084F8470084F83D00002010BD10B586B093
:1039D000044614216846FCF7CEFD1C4A21681C48A9
:1039E000914227D1016E41F400310166016E01F46C
:1039F00000310591C16C41F00101C164C06C6946A0
:103A000000F0010005909014009002200190002029
:103A100002900390012004904FF09040FEF7A0FE2A
:103A2000002211461920FEF7EFFF1920FEF7DEFFF6
:103A300006B010BD074A9142FAD1016E41F48021CF
:103A40000166006E00F480200590F1E7004401401B
:103A5000001002400048014090F83D10012901D0BB
:103A600001207047022180F83D100168CA6842F0C9
:103A70000102CA6000681349884214D0B0F1804F37
:103A800011D0114988420ED0104988420BD01049FC
:103A9000884208D00F49884205D00F49884202D099
:103AA0000E49884207D181680D4A1140062906D087
:103AB000B1F5803F03D0016841F0010101600020B1
:103AC00070470000002C0140000400400008004046
:103AD000000C004000340140004001400050014013
:103AE0000700010070472DE9F041054690F83C00C1
:103AF0000C46012836D0012085F83C008AB3042A00
:103B000042D02868082A51D0D4E90023E168066A27
:103B100026F480560662C669076A26F4407646EAAD
:103B200003234FF6FF7606EA013123F4704319436D
:103B30004FF4204627F4204306EA02321A43C161BB
:103B400002622868C16921F44061C1612868C169C5
:103B5000A26841EA0221C161002085F83C00BDE86D
:103B6000F08101E00220FAE7D4E90012E368286856
:103B700001F078FE2868816921F00C0181612868D4
:103B80008169A26811430FE0D4E90012E368286854
:103B900001F0A8FE2868816921F4406181612868EC
:103BA0008169A26841EA02218161D5E7D4E9002751
:103BB000267B016A21F480710162C169036A21F0E8
:103BC0000301394321F0F00731074FF4206647EA3B
:103BD000116123F4206306EA02221A43C1610262E2
:103BE0002868C16921F00C01C1612868C169A26817
:103BF0001143B0E710B5040003D094F83D0010B1B4
:103C000007E0012010BD002084F83C00204600F0B1
:103C100022F8022084F83D00211D206801F0EAFB13
:103C2000012084F8480084F83E0084F83F0084F8BE
:103C3000400084F8410084F8420084F8430084F88E
:103C4000440084F8450084F8460084F8470084F86E
:103C50003D00002010BD704770B504460068016942
:103C60004FF00005C943890715D4C168C9438907C6
:103C700011D4E91E01610120207720688069800746
:103C8000204602D0FFF72EFF04E000F055F9204651
:103C900000F0CAFA257720680169C943490717D49B
:103CA000C168C943490713D46FF0040101610220C0
:103CB00020772068806910F4407F204602D0FFF70B
:103CC00011FF04E000F038F9204600F0ADFA257746
:103CD00020680169C943090716D4C168C9430907A7
:103CE00012D46FF008010161042020772068C069B8
:103CF0008007204602D0FFF7F5FE04E000F01CF933
:103D0000204600F091FA257720680169C943C90669
:103D100017D4C168C943C90613D46FF010010161FB
:103D2000082020772068C06910F4407F204602D028
:103D3000FFF7D8FE04E000F0FFF8204600F074FA28
:103D4000257720680169C943C90708D1C168C943FB
:103D5000C90704D1891E0161204600F073FB206869
:103D60000169C943090609D4C168C943090605D4D4
:103D70006FF0800101612046FFF72DFD2068016989
:103D8000C943C90509D4C168C943090605D46FF4FC
:103D9000807101612046FFF71DFD20680169C9435C
:103DA000490609D4C168C943490605D46FF04001EA
:103DB0000161204600F047FB20680169C94389067C
:103DC00009D4C168C943890605D46FF02001016197
:103DD0002046FFF701FD20680169C943C90209D4E3
:103DE000C168C943C90205D46FF48011016120463E
:103DF000FFF75BFD20680169C943890209D4C168E6
:103E0000C943890205D46FF4001101612046FFF710
:103E10004BFD20680169C943490209D4C168C943FF
:103E2000490205D46FF4800101612046FFF73EFD91
:103E300020680169C94309020BD4C168C94309025A
:103E400007D46FF4000101612046BDE87040FFF720
:103E50008BBD70BD30B587B0044614216846FCF7B1
:103E60008AFB2468164D0023164A02211648AC42EC
:103E70000ED1D46C44F00404D464D26CCDE9023188
:103E800002F0040205924022CDE90021049111E0E4
:103E90000E4DAC4211D1D46C44F00404D464D26C05
:103EA00002F0040205926A150092CDE90113042183
:103EB000CDE903316946FEF753FC07B030BD000081
:103EC0000004004000100240000800480034014097
:103ED00010B5044690F83C0001280BD0012084F86E
:103EE0003C000C2A19D007DC5AB1042A0DD0082A4C
:103EF0001ED10EE0022010BD102A12D0142A17D1B4
:103F000013E0206801F0EEFA12E0206801F040FBB7
:103F10000EE0206801F08CFB0AE0206801F0D8FB7D
:103F200006E0206801F024FC02E0206801F05CFC5F
:103F3000002084F83C0010BD704710B5040003D089
:103F400094F83D0010B107E0012010BD002084F876
:103F50003C00204600F022F8022084F83D00211D9C
:103F6000206801F047FA012084F8480084F83E00F8
:103F700084F83F0084F8400084F8410084F842004F
:103F800084F8430084F8440084F8450084F846002F
:103F900084F8470084F83D00002010BD38B5054680
:103FA00000681349884221D11248816D41F0020115
:103FB0008165806D114C00F0020000900E48206079
:103FC0003D2060601020A06000208021C4E9030132
:103FD000890061618900C4E9061020622046FEF76D
:103FE0004DFB08B1FDF77DFB6C62A56238BD00009A
:103FF000000400400010024008000240B00200200F
:1040000070B5044690F83C000D4601280BD0012005
:1040100084F83C000C2A45D007DC5AB1042A1BD096
:10402000082A78D12CE0022070BD102A4ED0142A24
:1040300071D15DE0206801F055FA2068816941F096
:10404000080181612068816921F004018161206893
:1040500081692A69114311E0206801F099FA20680A
:10406000816941F4006181612068816921F4806186
:104070008161206881692A6941EA022181614AE0FF
:10408000206801F0D5FA2068C16941F00801C161DA
:104090002068C16921F00401C1612068C1692A69F1
:1040A000114311E0206801F013FB2068C16941F45D
:1040B0000061C1612068C16921F48061C16120682B
:1040C000C1692A6941EA0221C16124E0206801F046
:1040D0004FFB2068016D41F0080101652068016D0A
:1040E00021F0040101652068016D2A69114311E086
:1040F000206801F079FB2068016D41F400610165E1
:104100002068016D21F4806101652068016D2A69D4
:1041100041EA02210165002084F83C0070BD10B521
:10412000040003D094F83D0010B107E0012010BD59
:10413000002084F83C00204600F022F8022084F899
:104140003D00211D206801F055F9012084F8480048
:1041500084F83E0084F83F0084F8400084F8410071
:1041600084F8420084F8430084F8440084F8450051
:1041700084F8460084F8470084F83D00002010BD14
:1041800038B5054600682449884243D12348016E6A
:1041900041F400510166006E224C00F40050009082
:1041A0001F482060342060601020A0600020802123
:1041B000C4E90301490061618900C4E90610206275
:1041C0002046FEF75BFA08B1FDF78BFA2C6300225C
:1041D00011462B20A562FEF717FC2B20FEF706FCEC
:1041E000002211462C20FEF70FFC2C20FEF7FEFBD0
:1041F000002211462D20FEF707FC2D20FEF7F6FBCE
:10420000002211462E20FEF7FFFBBDE838402E208D
:10421000FEF7ECBB38BD0000003401400010024046
:104220001C000240100300200821014800F08CB857
:104230008001002070B50446022269B1042912D021
:10424000082917D00C291CD0102921D094F843003C
:10425000012824D0012070BD94F83E000128F9D136
:1042600084F83E201DE094F83F000128F2D184F844
:104270003F2016E094F840000128EBD184F840205C
:104280000FE094F841000128E4D184F8412008E0CF
:1042900094F842000128DDD184F8422001E084F83E
:1042A00043200122206801F00FF91D4920681D4AB2
:1042B0001D4B1E4D88420BD0904209D0984207D02A
:1042C0001B4EB04204D01B4EB04201D0A84203D1D5
:1042D000466C46F4004646642068884211D0B0F12E
:1042E000804F0ED0144988420BD01449884208D020
:1042F0001349884205D0904203D0984201D0A84289
:1043000007D181680F4A1140062906D0B1F5803FD8
:1043100003D0016841F001010160002070BD000080
:10432000002C014000340140004001400050014099
:1043300000440140004801400004004000080040E3
:10434000000C00400700010070B5044600680D0035
:1043500006D0042D0AD0082D4DD00C2D0DD150E0E3
:10436000C16821F40071C160606A04E0C16821F491
:104370008061C160A06AFEF7E7F800222946206844
:1043800001F0A2F8294B41F2111120688A009842ED
:104390000ED0274B98420BD0264B984208D0264B84
:1043A000984205D0254B984202D0254B984209D11E
:1043B000036A0B4206D1036A134203D1436C23F410
:1043C000004343642068036A0B4206D1016A11422C
:1043D00003D1016821F0010101600120BDB1042D6C
:1043E00018D0082D19D00C2D1AD0102D1BD084F800
:1043F0004300002070BDC16821F40061C160E06A23
:10440000B9E7C16821F48051C160206BB3E784F83B
:104410003E00EEE784F83F00EBE784F84000E8E771
:1044200084F84100E5E784F84200E2E7002C01400F
:104430000034014000400140004401400048014078
:10444000005001407047704790F88010012918D043
:10445000012180F880102421C0F8841050F8641BDA
:104460000A680B6823F001030B6022F00051002260
:10447000026050F8643C1960202101620277104606
:1044800070470220704770B5044690F880000128FC
:104490001DD0012084F880002420C4F88400206806
:1044A0000568026822F0010202602068826822F03A
:1044B00060620A438260204601F030FA206805609D
:1044C0002020C4F88400002084F8800070BD022001
:1044D00070BD70B5044690F8800001281DD0012001
:1044E00084F880002420C4F88400206805680268ED
:1044F00022F0010202602068826822F060420A43D2
:104500008260204601F00AFA206805602020C4F885
:104510008400002084F8800070BD022070BD10B5BA
:10452000040003D0D4F8840010B107E0012010BDCE
:10453000002084F88000204600F026F82420C4F8EB
:1045400084002068016821F001010160204601F02B
:104550009BFA0128EBD0A06A10B1204601F000FAC6
:104560002068416821F4904141602068816821F011
:104570002A0181602068016841F001010160204644
:10458000BDE8104001F050BA10B586B004461421C1
:104590006846FBF7F0FF1249206888421DD1114898
:1045A000016E41F480410166016E01F48041059184
:1045B000C16C41F00401C164C06C694600F00400A4
:1045C000059030200090022001900020029003907E
:1045D000072004900448FEF7C3F806B010BD0000A1
:1045E000003801400010024000080048FEE70000CB
:1045F00070B5FDF751F81A4D012208212846FEF743
:1046000098F93220FDF765F8002208212846FEF7C8
:1046100090F94FF4F070FEF791F801220821284636
:10462000FEF787F9FDF71CF808212846FEF77CF90C
:1046300003463220FDF74DF80A4C73B1002020707C
:104640004FF4D770FDF745F8FDF726F80122082151
:104650002846FEF76EF9207870BD0120EFE70000D4
:1046600000080048400000202DE9F0412D4C2E4E5E
:104670002E4D012708B1277001E0207898B1022162
:104680003046FEF751F9A8B101213046FEF74CF94A
:1046900080B108212846FEF747F958B11021284675
:1046A000FEF742F930B102213046FEF73DF901280C
:1046B00023D035E00A20FEF741F8002020700221C7
:1046C0003046FEF731F978B101213046FEF72CF97A
:1046D00068B108212846FEF727F950B11021284675
:1046E000FEF722F938B11BE00120BDE8F08102207D
:1046F000FBE70320F9E70420F7E701213046FEF746
:1047000013F901280CD108212846FEF70DF90128DC
:1047100006D110212846FEF707F9012800D127709D
:104720000020E2E7280000200008004800040048BC
:104730004FF09042402191610146014800F0E4BDF4
:10474000003001404FF09042402191620146014803
:1047500000F0DABD0030014000EB8100006E00F097
:10476000F84070478068C0F3C00070478068C0F3AD
:10477000800070478068C0F380007047C06810F404
:10478000406F01D00020704701207047042303EAE6
:10479000D15310B518444369C1F3045107248C4028
:1047A000A3438A401343436110BD00EB8100016EB7
:1047B00021F0004111430166704700002DE9F041EE
:1047C0000546002140F23F13EF22084600F039F978
:1047D0004FF0904140208861094E00244FF49637F5
:1047E0004FEA15284146304600F08EFDE9B23046CA
:1047F00000F08AFD641CBC42F4D3BDE8F0810000E7
:104800000030014010B500F00AF9CF20FFF79AFF01
:104810000020FFF78DFFC320FFF78AFF3020FFF74E
:1048200087FFED20FFF78EFF6420FFF781FF032055
:10483000FFF77EFF1220FFF77BFF8120FFF778FF55
:10484000E820FFF77FFF8520FFF772FF0020FFF7CA
:104850006FFF7820FFF76CFFCB20FFF773FF392045
:10486000FFF766FF2C20FFF763FF0020FFF760FFD4
:104870003420FFF75DFF0220FFF75AFFF720FFF714
:1048800061FF2020FFF754FFEA20FFF75BFF0020C5
:10489000FFF74EFF0020FFF74BFFC020FFF752FF4E
:1048A0001B20FFF745FFC120FFF74CFF1220FFF749
:1048B0003FFFC520FFF746FF3220FFF739FF3C20BE
:1048C000FFF736FFC720FFF73DFFAF20FFF730FFB0
:1048D0003620FFF737FF6820FFF72AFF2120FFF778
:1048E00031FF3A20FFF72EFF5520FFF721FFB120BF
:1048F000FFF728FF0020FFF71BFF1B20FFF718FF23
:10490000B420FFF71FFF0420FFF712FFB620FFF7C8
:1049100019FF0A20FFF70CFFA220FFF709FFF6207E
:10492000FFF710FF0120FFF703FF3020FFF700FF24
:10493000F220FFF707FF0020FFF7FAFE2620FFF71F
:1049400001FF0120FFF7F4FEE020FFF7FBFE0F2040
:10495000FFF7EEFE1D20FFF7EBFE1A20FFF7E8FE43
:104960000A20FFF7E5FE0D20FFF7E2FE0720FFF724
:10497000DFFE4920FFF7DCFE6620FFF7D9FE3B2073
:10498000FFF7D6FE0720FFF7D3FE1120FFF7D0FE7A
:104990000120FFF7CDFE0920FFF7CAFE0520FFF733
:1049A000C7FE0420FFF7C4FEE120FFF7CBFE002086
:1049B000FFF7BEFE1820FFF7BBFE1D20FFF7B8FE75
:1049C0000220FFF7B5FE0F20FFF7B2FE0420FFF72D
:1049D000AFFE3620FFF7ACFE1320FFF7A9FE4C20F8
:1049E000FFF7A6FE0720FFF7A3FE1320FFF7A0FEA8
:1049F0000F20FFF79DFE2E20FFF79AFE2F20FFF7D6
:104A000097FE0520FFF794FE1120FFF79BFE78200C
:104A1000FDF794FEBDE810402920FFF793BE70B566
:104A20004FF090441025A5610A20FDF787FEA5628E
:104A30006420FDF783FEA561BDE870406420FDF7AA
:104A40007DBE2DE9F04104461D4616460F462A203C
:104A5000FFF778FE204600F025F8304600F022F8F7
:104A60002B20FFF76FFE384600F01CF8284600F0B8
:104A700019F8BDE8F0412C20FFF764BE70B504467C
:104A80000D462A20FFF75EFE204600F00BF82B2093
:104A9000FFF758FE284600F005F8BDE870402C20CE
:104AA000FFF750BE10B50446000AFFF741FEE0B222
:104AB000BDE81040FFF73CBE30B58BB00024089431
:104AC0000994202168460A94FBF755FD1D481C49AE
:104AD000042501604FF44031C0E90114C460046151
:104AE000C0E90545047744770121016280F824403C
:104AF000C462046380F83840C46380F84040FDF726
:104B000003FB08B1FCF7EDFD08A90E480894FCF77B
:104B1000B3FE08B1FCF7E5FD0B4800900620CDE997
:104B200001047F200594CDE9030569460548FCF79B
:104B300053FF002801D0FCF7D4FD0BB030BD0000BE
:104B400000040050440000200200300430B589B059
:104B500020216846FBF70FFD194818490024016021
:104B60004FF44031C0E90114C46004250461C0E978
:104B70000545047744770121016280F82440C4622E
:104B8000046380F83840C46380F84040FDF7BCFA05
:104B900008B1FCF7A6FD0B4800900620CDE9010402
:104BA0007F200594CDE9030569460548FCF714FF0D
:104BB000002801D0FCF795FD09B030BD000500507C
:104BC000B00000201000C010114808B5816C41F001
:104BD00004018164816C01F004010091816C41F059
:104BE00001018164806C002200F0010000901146F8
:104BF0000B20FDF709FF0B20FDF7F8FE0022114600
:104C00000C20FDF701FFBDE808400C20FDF7EEBECB
:104C1000001002402DE9F04786B014216846FBF7EA
:104C2000AAFC4448C16C41F00401C164C16C01F0AC
:104C300004010591C16C41F02001C164C16C01F017
:104C400020010591C16C41F00101C164C16C01F00A
:104C500001010591C16C41F00201C164C06CDFF833
:104C6000D88000F0020042F20C4405900022214658
:104C70004046FDF75EFE4FF0904901221121484663
:104C8000FDF757FE00224FF414614846FDF751FE30
:104C9000DFF8A8A04FF48057002239465046FDF7B0
:104CA00048FE0125CDE900450024029469464046AE
:104CB0000394FDF755FDCDE9005469464046029541
:104CC000FDF74EFD0226CDE9006469464046029696
:104CD000FDF746FD40F211100090CDE90154694600
:104CE00048460394FDF73CFD4020CDE90005032034
:104CF000CDE9024069464846FDF732FD0097CDE90F
:104D00000154694650460394FDF72AFDE802CDE9B7
:104D10000005CDE9024669464846FDF721FD182009
:104D20008DE8310069465046FDF71AFD06B0BDE832
:104D3000F08700000010024000080048000400480E
:104D4000144810B5124901604FF4827141604FF46C
:104D5000004181604FF4E061C160022101610021E6
:104D60004FF40072C0E905121022C0E907210722A2
:104D70004162C0E90A12016308214163FEF7ACFBFE
:104D8000002803D0BDE81040FCF7ABBC10BD00000C
:104D9000003001401C0100201FB50024154800947C
:104DA000019402941249039401604721C0E901145F
:104DB0004FF6FF71C0E9031444618461FEF7D5FD2D
:104DC00008B1FCF78EFC0B48FEF714FF08B1FCF7A6
:104DD00088FC0120CDE90040029400226946054884
:104DE0000394FEF780FE002801D0FCF77AFC1FBD7B
:104DF00000440140180200200B4810B50949016029
:104E000000214FF6FF724160C0E902120161416169
:104E10008161FEF7AAFD002803D0BDE81040FCF731
:104E200060BC10BD004801406402002010B58AB08B
:104E30000024079408941C2168460994FBF79BFB07
:104E4000154814490160A921C0E9011440F2F31189
:104E5000C0E903148461FFF770F808B1FCF741FC66
:104E6000079407A90C480994FEF722FD08B1FCF746
:104E700038FC009401940294002269460648049488
:104E8000FFF726F808B1FCF72CFC0348FEF7E2FF19
:104E90000AB010BD000400408001002010B598B099
:104EA0000024149415941C210DA81694FBF763FBA1
:104EB00034216846FBF75FFB23482249C0E9001410
:104EC0004FF6FF71C0E90241046144618461FFF75C
:104ED00026F908B1FCF705FC1494159414A91A4896
:104EE0001694FEF7E5FC08B1FCF7FBFB6020CDE96A
:104EF0000D040F941094119412940C220DA91248D1
:104F00001394FFF77DF808B1FCF7EBFB00944FF426
:104F10000050CDE9044003940003CDE9084001941A
:104F20000294069407940A940B94694606480C94DC
:104F3000FEF754FC08B1FCF7D4FB0348FEF78AFFE8
:104F400018B010BD00340140CC010020184810B545
:104F5000164901604FF4E1314160002181600C226B
:104F6000C160C0E904128161C16101624162816274
:104F7000FFF7D5FA08B1FCF7B4FB00210C48FFF7A6
:104F8000A8FA08B1FCF7ADFB00210948FFF77BFA4E
:104F900008B1FCF7A6FB0648FFF756FA002803D035
:104FA000BDE81040FCF79DBB10BD0000003801407B
:104FB00070030020FEE7FEE770B505462DED048B7B
:104FC0009FED268B9FED279B284CFDF721FA284665
:104FD000FCF73AFF00EE100ADFED250AB8EEC00A32
:104FE00020EE200A10EE100A01F060FF9FED211B59
:104FF00053EC112B01F03CFD9FED201B53EC112BCA
:1050000001F036FD9FED1F1B53EC112B01F060FAF0
:1050100041EC100B53EC182B84ED000B01F0ECFC71
:1050200001D884ED008B94ED000B53EC192B51EC5F
:10503000100B01F01BFE01D884ED009B9FED130BBC
:1050400053EC102B94ED000B51EC100B01F044FECF
:10505000BDEC048B41EC100B70BD000000000000A3
:10506000000000000000000000002C40380000207C
:10507000000080396666666666660A4087A757CA7A
:10508000320417C08195438B6CA7304000000000AC
:10509000000014407047000070B50024124E08252F
:1050A000002208213046FDF744FC64080122082153
:1050B0003046FDF73EFCFCF7D3FA08213046FDF7F9
:1050C00033FC08B144F080044620FCF702FBFCF7F7
:1050D000E3FA012208213046FDF72BFC6D1E15F086
:1050E000FF05DDD1204670BD0008004810B5FFF770
:1050F0007FFA1148104C0078641C98B9CC2000F05D
:1051000065FE442000F062FEFFF772FACC2000F04A
:105110005DFEBE2000F05AFEFFF7BEFF2070FFF7D5
:10512000BBFF607060782178000100EB11106070A7
:10513000401FC0B210BD000040000020F8B5154669
:105140000E460B460092044600224FF4C05100F078
:1051500019F888B93346002280212046009500F0D6
:1051600077F848B9334600224FF4C06120460095D5
:1051700000F008F8002804D0206E40F020002066DF
:105180000320F8BD2DE9FC47994617460E46044614
:105190000A9DFDF7D3FB411BA9EB0105FDF7CEFBF3
:1051A00080462A484FF4C06A0068C0EBC00000EB9C
:1051B0008000000D6843009040E0564502D10FB9D1
:1051C000007B0190B9F1FF3F38D0FDF7B7FBA0EBB2
:1051D0000800A84203D215B1009860B32CE0206803
:1051E000416821F0E00141606068B0F5827F0BD139
:1051F000A068B0F5004F02D0B0F5806F04D12068F0
:10520000016821F040010160A06AB0F5005F09D19A
:105210002068016821F4005101602068016841F4B0
:1052200000510160012084F85D00002084F85C00DA
:105230000320BDE8FC870025401E0090206881689F
:105240003140B942B9D10020F3E70000240000202A
:105250002DE9F8431E46914688460446089DFDF711
:105260006DFB401B351AFDF769FB074625480068B2
:10527000C0F3CB30684338E0701C37D0FDF75EFBDD
:10528000C01BA84203D215B1009860B32CE020687F
:10529000416821F0E00141606068B0F5827F0BD188
:1052A000A068B0F5004F02D0B0F5806F04D120683F
:1052B000016821F040010160A06AB0F5005F09D1EA
:1052C0002068016821F4005101602068016841F400
:1052D00000510160012084F85D00002084F85C002A
:1052E0000320BDE8F8830025401E009020688168F7
:1052F00038EA010004D000214945BDD10020F0E783
:105300000121F9E72400002013B5FF23012201A9A0
:105310000148FEF787F91CBD1C0100207047FDF70E
:1053200013BB10B5A8B0382115A8FBF724F9142138
:1053300023A8FBF720F954216846FBF71CF900204D
:10534000FDF794FB01201590000416900220032421
:1053500006211C90CDE91D415521CDE91F1021905A
:10536000229015A8FDF7B2FE08B172B6FEE70F2035
:10537000CDE92304002425942694042123A827940E
:10538000FDF75AFD08B172B6FEE74FF00110CDE906
:105390000004C00712906846FDF7CEFB002801D03C
:1053A00072B6FEE728B010BD0248016841F47001F2
:1053B0000160704788ED00E00148FEF74DBC000039
:1053C000180200200148FEF747BC0000CC01002075
:1053D0000148FEF741BC0000CC0100200148FEF767
:1053E0003BBC0000CC0100200148FEF735BC0000AA
:1053F000CC0100202DE9F04F02682A4B2A4E2B4F9A
:10540000DFF8ACC02B4C2C4D4FF0804B98420BD0AA
:10541000584509D0B04207D0B84205D0604503D006
:10542000A04201D0A84204D122F070084A6842EAA2
:105430000802DFF88880DFF88890DFF888A09842BB
:1054400011D058450FD0B0420DD0B8420BD06045B6
:1054500009D0A04207D0404505D0484503D050456B
:1054600001D0A84203D122F44076CA6832434E6983
:1054700022F08002324302608A68C2620A68826255
:10548000984209D0A04207D0404505D0484503D0F6
:10549000504501D0A84201D1096901630121416150
:1054A000BDE8F08F002C01400004004000080040DF
:1054B000000C004000340140005001400040014019
:1054C000004401400048014010B501F01F030121D4
:1054D000046A99408C430462016A9A401143016254
:1054E00010BD00002DE9F047026A22F001020262BD
:1054F000056A436882691F4C25F0020522400C684A
:1055000022F0030214438A681C4E2A431A4D1C4F92
:10551000DFF870C0DFF87090DFF870A0A84209D003
:10552000B04207D0B84205D0604503D0484501D00D
:10553000504506D122F00808CA6842EA080222F063
:105540000402A84209D0B04207D0B84205D0604555
:1055500003D0484501D0504505D14D6923F440732F
:105560001D438B692B434360846149684163026238
:10557000BDE8F0878FFFFEFF002C014000340140A2
:1055800000400140004401400048014000500140FB
:10559000F0B5026A22F010020262056A426883696D
:1055A0001C4C1E4E23400C6823F4407343EA042431
:1055B00025F020038D681A4F43EA0513164DA842C3
:1055C00003D0B04201D0B84207D1D1F80CC023F0CB
:1055D000800343EA0C1323F04003A8420CD0B042EE
:1055E0000AD0104DA84207D00F4DA84204D00F4D4D
:1055F000A84201D0B84207D14D6922F4406242EA84
:1056000085028D6942EA850242608461496881634E
:105610000362F0BDFF8FFFFE002C0140003401400B
:10562000005001400040014000440140004801405A
:10563000F0B5026A22F480720262056A4268C369A8
:105640001C4C1E4E23400C6823F003031C4325F41E
:1056500000738D681A4F43EA0523174DA84203D003
:10566000B04201D0B84207D1D1F80CC023F4006396
:1056700043EA0C2323F48063A8420CD0B0420AD042
:10568000104DA84207D0104DA84204D00F4DA8429B
:1056900001D0B84207D14D6922F4405242EA0512C6
:1056A0008D6942EA05124260C4614968C1630362C0
:1056B000F0BD00008FFFFEFF002C014000340140D0
:1056C00000500140004001400044014000480140BA
:1056D000F0B5026A22F480520262056A4268C36928
:1056E0001C4C1E4E23400C6823F4407343EA0424F0
:1056F00025F400538D681A4F43EA0533164DA8422E
:1057000003D0B04201D0B84207D1D1F80CC023F485
:10571000004343EA0C3323F48043A8420CD0B04248
:105720000AD0104DA84207D00F4DA84204D00F4D0B
:10573000A84201D0B84207D14D6922F4404242EA62
:1057400085128D6942EA85124260C461496801642C
:105750000362F0BDFF8FFFFE002C014000340140CA
:105760000050014000400140004401400048014019
:1057700030B5026A22F480320262046A4268036D24
:10578000124D2B400D681D4324F400330C8943EA6D
:1057900004430F4CA0420ED00E4CA0420BD00E4C36
:1057A000A04208D00D4CA04205D00D4CA04202D022
:1057B0000C4CA04204D14C6922F4803242EA04220B
:1057C0004260056549688164036230BD8FFFFEFF5A
:1057D000002C0140003401400040014000440140E1
:1057E000004801400050014030B5026A22F48012A6
:1057F0000262046A4268036D134D24F400142B40C6
:105800000D6843EA05230D8944EA05540F4DA8426B
:105810000ED00F4DA8420BD00E4DA84208D00E4D11
:10582000A84205D00D4DA84202D00D4DA84204D18A
:105830004D6922F4802242EA85224260036549686C
:10584000C164046230BD0000FF8FFFFE002C0140E8
:105850000034014000400140004401400048014044
:105860000050014070B5046A24F0010404628469A8
:10587000056A154EB04214D0B0F1804F11D0134ECE
:10588000B0420ED0124EB0420BD0124EB04208D0F1
:10589000114EB04205D0114EB04202D0104EB0426F
:1058A00003D124F00304144301E044F001041A0777
:1058B00024F0F00444EA126225F00A0301F00A0120
:1058C00019438261016270BD002C01400004004058
:1058D00000080040000C004000340140004001403E
:1058E0000050014030B5046A24F010040462846959
:1058F000056A24F4407444EA022222F470444FF60C
:10590000FF7202EA03322243A02425F0A00304EA36
:10591000011119438261016230BD000030B5416E52
:10592000B9B1026891689268C1F342610B4B520FA2
:105930009C5CE50003F10804A25CB5FBF2F2A0F860
:105940006A205A5C615CD200B2FBF1F1A0F86810E9
:1059500030BD0121A0F86A10F8E70000928A000823
:1059600090F82810C90706D001684A68C36A22F473
:1059700000321A434A6090F82810890706D501685A
:105980004A68036B22F480321A434A6090F8281068
:10599000490706D501684A68436B22F480221A43FE
:1059A0004A6090F82810090706D501684A68836B99
:1059B00022F400421A434A6090F82810C90606D51E
:1059C00001688A68C36B22F480521A438A6090F897
:1059D0002810890606D501688A68036C22F40052F3
:1059E0001A438A6090F82810490611D501684A6860
:1059F000436C22F480121A434A60416CB1F5801F57
:105A000006D101684A68836C22F4C0021A434A60D6
:105A100090F82810090606D501684A68C06C22F47F
:105A2000002202434A607047F8B500260446C0F8D9
:105A30008C60FCF783FF0546206800686FF07E47A6
:105A4000000708D52B4600224FF40011204600978E
:105A500000F068F960B92068006840070AD52B4655
:105A600000224FF480012046009700F05BF908B156
:105A70000320F8BD2020C4F88400C4F8880044F84E
:105A80006C6F00202675F8BD2DE9F04104460168D1
:105A900080682269E3691043626900251A43104354
:105AA000DFF850C20A68944B1A4002430A6020682B
:105AB0004168E26821F44051114341602168A069C6
:105AC000614501D0226A10438A688C4B1A40024318
:105AD0008A602068C16A626A21F00F011143C162C5
